:10087400534420496E697420537563636573732E02
:0F08840000534420496E6974204661696C2E0050
:0A08B400032CFF0874032FFF0885D2
:0708A600C2921208ADD292CC
:0608AD00E4FF0FBF28FC70
:0108B3002222
:04082E00AD07AC0660
:10083200E4FBC292EC30E704D2918002C291D292E0
:0E0842001208ADED25E0FDEC33FC0BBB10E41D
:010850002285
:0207E400AD075F
:1007E600ED7D00FCE4FBC292EC30E704D29180027E
:1007F600C291D2921208ADED25E0FDEC33FC0BBBA5
:0208060008E404
:0108080022CD
:10085100E4FDFCFBC2921208ADD292ED25E0FDEC65
:1008610033FC3093050DBD00010C0BBB10E6AE044B
:02087100AF05D1
:010873002262
:1008090074FFFDFCE4FBC2921208ADD292ED25E023
:10081900FDEC33FC3093050DBD00010C0BBB08E664
:04082900AE04AF0565
:01082D0022A8
:04024800AB07AA0650
:10024C00E4F520F521F52475250AF522752395EBA7
:10025C004A60067522007523FFC290AF17AE16AD2B
:10026C0015AC147818120582AD07AC06EB4440FEB1
:10027C00E42DFFEE3CFE12082EE4FFE516FEE5151C
:10028C00FDE4FC780812058212082EE517FFE4FE47
:10029C00FDFC7808120595E5232FFFE5223EFE12A2
:1002AC00082ED291E4F51CF51D1208A6051DE51DBE
:1002BC007002051CC39408E51C940040ECE5187012
:1002CC004AE51924FE601A14603A2402703D1208A3
:1002DC00098E1E8F1FE51FF47003E51EF460EF807E
:1002EC002A1208098E1E8F1FE51FF47003E51EF4F9
:1002FC0060EF120809E42FF521EE3401F5204521B9
:10030C0070F080071208518E1E8F1FE51B451A7066
:10031C0002D290E4F51CF51D1208A6051DE51D7012
:10032C0002051CC39408E51C940040ECAE1EAF1FE4
:01033C00229E
:10078C00750C00750D0AE4FDFC1208A60DBD0001E8
:10079C000CED64504C70F2E4F517F516F515F514E4
:0E07AC00F518751901F51AF51BFFFE1202482B
:0107BA00221C
:1006CC00750E00750F32900000C3E582950FE5831F
:1006DC00950E504AE4F517F516F515F514F5187541
:1006EC001901F51AF51B7F37FE1202488E0C8F0D7F
:1006FC00E4F517F516F515F514F518751901F51A35
:10070C00F51B7F29FE1202488E0C8F0DE4B50D0BE4
:10071C00E50CB4FF06850E83850F82A380ABAE0C6F
:02072C00AF0D0F
:01072E0022A8
:10000300900032E4F50CF50DC3E50D9582E50C95F2
:10001300835036E4F517F516F515F514F51875192B
:1000230001F51A751B017F09FE1202488E0E8F0F10
:10003300E4B50F0BE50EB4FF0685830C85820D0531
:100043000DE50D70C3050C80BFE4F50CF50D12082A
:10005300A6050DE50D7002050CC39408E50C94008C
:1000630040ECE4F50CF50D120851AC06AD07E50DB7
:1000730025E0FFE50C33FE74002FF58274003EF596
:1000830083ECF0A3EDF0050DE50D7002050CC394B0
:1000930008E50C940040D0E4F50CF50D1208A60514
:1000A3000DE50D7002050CC39410E50C940040ECB3
:1000B300D290E4F50CF50D1208A6050DE50D7002BE
:1000C300050CC39408E50C940040EC900008E0FA9A
:1000D300A3E0FBEAC4131354037C005403FD900014
:1000E30006E0FEA3E07802C333CE33CED8F9FFEEA9
:1000F300540FFEEF2DFFEE3CCF2401CF3400FEE47E
:100103008F2B8E2AF529F52890000AE0C4131313C8
:100113005401FFAE03EE25E054072F04FF74027E63
:1001230000A807088005C333CE33CED8F9FFEE33DA
:1001330095E0FDFCAB2BAA2AA929A8281205228F3A
:0B0143002B8E2A8D298C28AE0EAF0FEA
:01014E00228E
:10072F00E4FFFE750AFFF50BD29112078CBEFFFA9C
:10073F00BF01F7EF64017002EEF4600B7408250B34
:10074F00F50BE4350AF50A1206CCEF7002EEF460F1
:10075F000B7404250BF50BE4350AF50A120003E4BC
:10076F00B507F9EEB4FFF5BEFF0EBF010B740225FE
:0C077F000BF50BE4350AF50AAE0AAF0BCF
:01078B00224B
:1004250090000AE4F50AF50BC3E50B9582E50A95FC
:10043500835036E4F517F516F515F514F518751905
:1004450001F51A751B017F0AFE1202488E0C8F0DED
:10045500E4B50D0BE50CB4FF0685830A85820B0513
:100465000BE50B70C3050A80BFE4F50AF50B12080E
:10047500A6050BE50B7002050AC39408E50A94006E
:1004850040ECE4F50AF50B120851AC06AD07E50B97
:1004950025E0FFE50A33FE74002FF58274003EF572
:1004A50083ECF0A3EDF0050BE50B7002050AC39490
:1004B50008E50A940040D0E4F50AF50B1208A605F4
:1004C5000BE50B7002050AC39410E50A940040EC95
:1004D500D290E4F50AF50B1208A6050BE50B7002A0
:0F04E500050AC39408E50A940040ECAE0CAF0D75
:0104F40022E5
:08033D008F0D8E0C8D0B8C0A54
:1003450090000AAF2BAE2AAD29AC28AB0DAA0CA99B
:100355000BA80AD312057140057EFF7F2022E4F524
:100365000EF50FC3E50F9582E50E9583503C850D7F
:1003750017850C16850B15850A1475180075190156
:10038500751A00751B017F117E001202488E108FB1
:1003950011E4B5110BE510B4FF0685830E85820FB8
:1003A500050FE50F70BD050E80B9120809BEFFFAED
:1003B500BFFEF7E4F50EF50F120851AC06AD07E5E3
:1003C5000F547F25E0FFE433FE74002FF58274009F
:1003D5003EF583ECF0A3EDF0050FE50F7002050E79
:1003E500C3E50E940140D1E4F50EF50F1208A605FC
:1003F5000FE50F7002050EC39410E50E940040EC56
:10040500D290E4F50EF50F1208A6050FE50F700260
:0F041500050EC39408E50E940040ECAE10AF1135
:0104240022B5
:08014F008F0D8E0C8D0B8C0A44
:1001570090000AAF2BAE2AAD29AC28AB0DAA0CA98B
:100167000BA80AD312057140057EFF7F2022E4F514
:100177000EF50FC3E50F9582E50E9583503C850D6F
:1001870017850C16850B15850A1475180075190146
:10019700751A00751B017F187E001202488E108F9A
:1001A70011E4B5110BE510B4FF0685830E85820FA8
:1001B700050FE50F70BD050E80B9E4F50EF50F12BA
:1001C70008A6050FE50F7002050EC39408E50E9407
:1001D7000040EC7FFE7E001207E4E4F50EF50FE524
:1001E7000F547F25E0FFE433FE74002FF58274017E
:1001F7003EF583E0FEA3E0FF12082E050FE50F7022
:1002070002050EC3E50E940140D574FFFFFE1208E8
:100217002E1208098E108F11120809BEFFFABFFFB0
:10022700F7D290E4F50EF50F1208A6050FE50F704B
:1002370002050EC39408E50E940040ECAE10AF1112
:010247002294
:10089300759850438920758DFD758BFDD2ACD2AF11
:0308A300D28E22D0
:0808BF008F993099FDC29922C6
:0A07BB008B328A3389348C358D3679
:1007C500E4FEAB32AA33A9348E827583001204F598
:0E07D500FF1208BF0EEEC39536E4953540E4E2
:0107E30022F3
:1005A800E4FDEDC39440ED500F25E02400F582E40E
:1005B8003401F5837441800D25E02400F582E4348C
:1005C80001F5837442F0A3F00DBD80D6120893C2E2
:1005D80099E4FFFE12072FE4F517751602F515F5D5
:1005E80014F518751901F51AF51B7F10FE1202484B
:1005F8001204258E088F097F007E007D007C001282
:10060800014F7F007E007D007C0012033DE4FDED7C
:1006180025E02400F582E43400F583E0FF1208BFEA
:10062800ED25E02400F582E43400F583A3E0FF1211
:0806380008BF0DBD80D980FE52
:03000000020640B5
:0C064000787FE4F6D8FD7581360206874D
:1004F500BB010CE58229F582E5833AF583E02250BC
:1005050006E92582F8E622BBFE06E92582F8E22205
:0D051500E58229F582E5833AF583E493221F
:10052200E88FF0A4CC8BF0A42CFCE98EF0A42CFC78
:100532008AF0EDA42CFCEA8EF0A4CDA8F08BF0A4F6
:100542002DCC3825F0FDE98FF0A42CCD35F0FCEB55
:100552008EF0A4FEA9F0EB8FF0A4CFC5F02ECD391A
:0F056200FEE43CFCEAA42DCE35F0FDE43CFC2287
:10057100EB9FF5F0EA9E42F0E99D42F0E89C45F0E0
:010581002257
:10058200E8600FECC313FCED13FDEE13FEEF13FF57
:03059200D8F1227B
:10059500E8600FEFC333FFEE33FEED33FDEC33FCC4
:0305A500D8F12268
:10064C000205A8E493A3F8E493A34003F68001F217
:10065C0008DFF48029E493A3F85407240CC8C333AF
:10066C00C4540F4420C8834004F456800146F6DF7E
:10067C00E4800B01020408102040809008B4E47E52
:10068C00019360BCA3FF543F30E509541FFEE49373
:10069C00A360010ECF54C025E060A840B8E493A33A
:1006AC00FAE493A3F8E493A3C8C582C8CAC583CA65
:1006BC00F0A3C8C582C8CAC583CADFE9DEE780BE1D
:0108BE000039
:00000001FF
